{
  "_format": "hh-sol-artifact-1",
  "contractName": "SupplyGuard",
  "sourceName": "contracts/SupplyGuard.sol",
  "abi": [
    {
      "inputs": [],
      "stateMutability": "nonpayable",
      "type": "constructor"
    },
    {
      "anonymous": false,
      "inputs": [
        {
          "indexed": false,
          "internalType": "uint256",
          "name": "id",
          "type": "uint256"
        },
        {
          "indexed": false,
          "internalType": "string",
          "name": "title",
          "type": "string"
        },
        {
          "indexed": false,
          "internalType": "uint256",
          "name": "priceUSD",
          "type": "uint256"
        }
      ],
      "name": "NFTAdded",
      "type": "event"
    },
    {
      "anonymous": false,
      "inputs": [
        {
          "indexed": false,
          "internalType": "uint256",
          "name": "id",
          "type": "uint256"
        },
        {
          "indexed": false,
          "internalType": "address",
          "name": "owner",
          "type": "address"
        }
      ],
      "name": "NFTMinted",
      "type": "event"
    },
    {
      "inputs": [
        {
          "internalType": "string",
          "name": "title",
          "type": "string"
        },
        {
          "internalType": "string",
          "name": "description",
          "type": "string"
        },
        {
          "internalType": "string",
          "name": "imageUrl",
          "type": "string"
        },
        {
          "internalType": "string",
          "name": "source",
          "type": "string"
        },
        {
          "internalType": "uint256",
          "name": "priceUSD",
          "type": "uint256"
        }
      ],
      "name": "addNFT",
      "outputs": [],
      "stateMutability": "nonpayable",
      "type": "function"
    },
    {
      "inputs": [
        {
          "internalType": "uint256[]",
          "name": "nftIds",
          "type": "uint256[]"
        },
        {
          "internalType": "uint256[]",
          "name": "pricesUSD",
          "type": "uint256[]"
        },
        {
          "internalType": "bytes[]",
          "name": "callData",
          "type": "bytes[]"
        }
      ],
      "name": "batchMintNFT",
      "outputs": [],
      "stateMutability": "payable",
      "type": "function"
    },
    {
      "inputs": [],
      "name": "getAllNFTs",
      "outputs": [
        {
          "components": [
            {
              "internalType": "uint256",
              "name": "id",
              "type": "uint256"
            },
            {
              "internalType": "string",
              "name": "title",
              "type": "string"
            },
            {
              "internalType": "string",
              "name": "description",
              "type": "string"
            },
            {
              "internalType": "string",
              "name": "imageUrl",
              "type": "string"
            },
            {
              "internalType": "string",
              "name": "source",
              "type": "string"
            },
            {
              "internalType": "uint256",
              "name": "priceUSD",
              "type": "uint256"
            },
            {
              "internalType": "bool",
              "name": "isMinted",
              "type": "bool"
            }
          ],
          "internalType": "struct SupplyGuard.NFT[]",
          "name": "",
          "type": "tuple[]"
        }
      ],
      "stateMutability": "view",
      "type": "function"
    },
    {
      "inputs": [
        {
          "internalType": "uint256",
          "name": "priceUSD",
          "type": "uint256"
        }
      ],
      "name": "getETHAmount",
      "outputs": [
        {
          "internalType": "uint256",
          "name": "",
          "type": "uint256"
        }
      ],
      "stateMutability": "view",
      "type": "function"
    },
    {
      "inputs": [],
      "name": "getLatestPrice",
      "outputs": [
        {
          "internalType": "int256",
          "name": "",
          "type": "int256"
        }
      ],
      "stateMutability": "view",
      "type": "function"
    },
    {
      "inputs": [
        {
          "internalType": "address",
          "name": "user",
          "type": "address"
        }
      ],
      "name": "getMintedNFTsByUser",
      "outputs": [
        {
          "components": [
            {
              "internalType": "uint256",
              "name": "id",
              "type": "uint256"
            },
            {
              "internalType": "string",
              "name": "title",
              "type": "string"
            },
            {
              "internalType": "string",
              "name": "description",
              "type": "string"
            },
            {
              "internalType": "string",
              "name": "imageUrl",
              "type": "string"
            },
            {
              "internalType": "string",
              "name": "source",
              "type": "string"
            },
            {
              "internalType": "uint256",
              "name": "priceUSD",
              "type": "uint256"
            },
            {
              "internalType": "bool",
              "name": "isMinted",
              "type": "bool"
            }
          ],
          "internalType": "struct SupplyGuard.NFT[]",
          "name": "",
          "type": "tuple[]"
        }
      ],
      "stateMutability": "view",
      "type": "function"
    },
    {
      "inputs": [],
      "name": "makePayment",
      "outputs": [],
      "stateMutability": "payable",
      "type": "function"
    },
    {
      "inputs": [
        {
          "internalType": "uint256",
          "name": "nftId",
          "type": "uint256"
        }
      ],
      "name": "mintNFT",
      "outputs": [],
      "stateMutability": "payable",
      "type": "function"
    },
    {
      "inputs": [
        {
          "internalType": "uint256",
          "name": "",
          "type": "uint256"
        }
      ],
      "name": "nftOwners",
      "outputs": [
        {
          "internalType": "address",
          "name": "",
          "type": "address"
        }
      ],
      "stateMutability": "view",
      "type": "function"
    },
    {
      "inputs": [
        {
          "internalType": "uint256",
          "name": "",
          "type": "uint256"
        }
      ],
      "name": "nfts",
      "outputs": [
        {
          "internalType": "uint256",
          "name": "id",
          "type": "uint256"
        },
        {
          "internalType": "string",
          "name": "title",
          "type": "string"
        },
        {
          "internalType": "string",
          "name": "description",
          "type": "string"
        },
        {
          "internalType": "string",
          "name": "imageUrl",
          "type": "string"
        },
        {
          "internalType": "string",
          "name": "source",
          "type": "string"
        },
        {
          "internalType": "uint256",
          "name": "priceUSD",
          "type": "uint256"
        },
        {
          "internalType": "bool",
          "name": "isMinted",
          "type": "bool"
        }
      ],
      "stateMutability": "view",
      "type": "function"
    },
    {
      "inputs": [
        {
          "internalType": "address payable",
          "name": "recipient",
          "type": "address"
        }
      ],
      "name": "withdraw",
      "outputs": [],
      "stateMutability": "nonpayable",
      "type": "function"
    }
  ],
  "bytecode": "0x60806040526000805534801561001457600080fd5b5073d4a33860578de61dbabdc8bfdb98fd742fa7028e600360006101000a81548173ffffffffffffffffffffffffffffffffffffffff021916908373ffffffffffffffffffffffffffffffffffffffff160217905550610808600460006101000a81548173ffffffffffffffffffffffffffffffffffffffff021916908373ffffffffffffffffffffffffffffffffffffffff160217905550612ca2806100bc6000396000f3fe60806040526004361061009c5760003560e01c80638e15f473116100645780638e15f4731461018f57806392642744146101ba578063bbd94c2f146101d6578063d8d7970014610213578063e0391b091461021d578063ef46b2ab146102485761009c565b8063265aa621146100a15780632fd8ecb8146100e45780634d78d4b71461010d57806351cff8d9146101295780637c52882914610152575b600080fd5b3480156100ad57600080fd5b506100c860048036038101906100c391906116f9565b610285565b6040516100db97969594939291906117e0565b60405180910390f35b3480156100f057600080fd5b5061010b600480360381019061010691906119a0565b6104f4565b005b61012760048036038101906101229190611cd5565b610629565b005b34801561013557600080fd5b50610150600480360381019061014b9190611dda565b610abe565b005b34801561015e57600080fd5b5061017960048036038101906101749190611e45565b610b77565b604051610186919061204d565b60405180910390f35b34801561019b57600080fd5b506101a461100b565b6040516101b19190612088565b60405180910390f35b6101d460048036038101906101cf91906116f9565b6110ac565b005b3480156101e257600080fd5b506101fd60048036038101906101f891906116f9565b611233565b60405161020a91906120b2565b60405180910390f35b61021b611266565b005b34801561022957600080fd5b506102326112c3565b60405161023f919061204d565b60405180910390f35b34801561025457600080fd5b5061026f600480360381019061026a91906116f9565b6115f3565b60405161027c91906120cd565b60405180910390f35b60016020528060005260406000206000915090508060000154908060010180546102ae90612117565b80601f01602080910402602001604051908101604052809291908181526020018280546102da90612117565b80156103275780601f106102fc57610100808354040283529160200191610327565b820191906000526020600020905b81548152906001019060200180831161030a57829003601f168201915b50505050509080600201805461033c90612117565b80601f016020809104026020016040519081016040528092919081815260200182805461036890612117565b80156103b55780601f1061038a576101008083540402835291602001916103b5565b820191906000526020600020905b81548152906001019060200180831161039857829003601f168201915b5050505050908060030180546103ca90612117565b80601f01602080910402602001604051908101604052809291908181526020018280546103f690612117565b80156104435780601f1061041857610100808354040283529160200191610443565b820191906000526020600020905b81548152906001019060200180831161042657829003601f168201915b50505050509080600401805461045890612117565b80601f016020809104026020016040519081016040528092919081815260200182805461048490612117565b80156104d15780601f106104a6576101008083540402835291602001916104d1565b820191906000526020600020905b8154815290600101906020018083116104b457829003601f168201915b5050505050908060050154908060060160009054906101000a900460ff16905087565b600080600081548092919061050890612177565b9190505590506040518060e001604052808281526020018781526020018681526020018581526020018481526020018381526020016000151581525060016000838152602001908152602001600020600082015181600001556020820151816001019081610576919061236b565b50604082015181600201908161058c919061236b565b5060608201518160030190816105a2919061236b565b5060808201518160040190816105b8919061236b565b5060a0820151816005015560c08201518160060160006101000a81548160ff0219169083151502179055509050507fbb30b7d5e7538b947de5934d8394b82e2d4888ed02831f393ee53ed40c67724d8187846040516106199392919061243d565b60405180910390a1505050505050565b815183511461066d576040517f08c379a0000000000000000000000000000000000000000000000000000000008152600401610664906124ed565b60405180910390fd5b6000835167ffffffffffffffff81111561068a57610689611875565b5b6040519080825280602002602001820160405280156106b85781602001602082028036833780820191505090505b5090506000845167ffffffffffffffff8111156106d8576106d7611875565b5b6040519080825280602002602001820160405280156107065781602001602082028036833780820191505090505b5090506000855167ffffffffffffffff81111561072657610725611875565b5b6040519080825280602002602001820160405280156107545781602001602082028036833780820191505090505b50905060005b8651811015610901576001600088838151811061077a5761077961250d565b5b6020026020010151815260200190815260200160002060060160009054906101000a900460ff16156107e1576040517f08c379a00000000000000000000000000000000000000000000000000000000081526004016107d890612588565b60405180910390fd5b60006108068783815181106107f9576107f861250d565b5b60200260200101516115f3565b90508034101561084b576040517f08c379a0000000000000000000000000000000000000000000000000000000008152600401610842906125f4565b60405180910390fd5b3085838151811061085f5761085e61250d565b5b602002602001019073ffffffffffffffffffffffffffffffffffffffff16908173ffffffffffffffffffffffffffffffffffffffff168152505060008483815181106108ae576108ad61250d565b5b602002602001018181525050620493e08383815181106108d1576108d061250d565b5b602002602001019067ffffffffffffffff16908167ffffffffffffffff168152505050808060010191505061075a565b50600460009054906101000a900473ffffffffffffffffffffffffffffffffffffffff1673ffffffffffffffffffffffffffffffffffffffff166396e292b8848487856040518563ffffffff1660e01b8152600401610963949392919061296a565b600060405180830381600087803b15801561097d57600080fd5b505af1158015610991573d6000803e3d6000fd5b5050505060005b8651811015610ab55733600260008984815181106109b9576109b861250d565b5b6020026020010151815260200190815260200160002060006101000a81548173ffffffffffffffffffffffffffffffffffffffff021916908373ffffffffffffffffffffffffffffffffffffffff1602179055506001806000898481518110610a2557610a2461250d565b5b6020026020010151815260200190815260200160002060060160006101000a81548160ff0219169083151502179055507f0176f203df400d7bd5f1b1c9ef36c16709bf3b5d9fd35f000a6bae32393f66c3878281518110610a8957610a8861250d565b5b602002602001015133604051610aa09291906129cb565b60405180910390a18080600101915050610998565b50505050505050565b600073ffffffffffffffffffffffffffffffffffffffff168173ffffffffffffffffffffffffffffffffffffffff1603610b2d576040517f08c379a0000000000000000000000000000000000000000000000000000000008152600401610b2490612a40565b60405180910390fd5b8073ffffffffffffffffffffffffffffffffffffffff166108fc479081150290604051600060405180830381858888f19350505050158015610b73573d6000803e3d6000fd5b5050565b60606000805b600054811015610c36578373ffffffffffffffffffffffffffffffffffffffff166002600083815260200190815260200160002060009054906101000a900473ffffffffffffffffffffffffffffffffffffffff1673ffffffffffffffffffffffffffffffffffffffff16148015610c1557506001600082815260200190815260200160002060060160009054906101000a900460ff165b15610c29578180610c2590612177565b9250505b8080600101915050610b7d565b5060008167ffffffffffffffff811115610c5357610c52611875565b5b604051908082528060200260200182016040528015610c8c57816020015b610c79611670565b815260200190600190039081610c715790505b5090506000805b600054811015610fff578573ffffffffffffffffffffffffffffffffffffffff166002600083815260200190815260200160002060009054906101000a900473ffffffffffffffffffffffffffffffffffffffff1673ffffffffffffffffffffffffffffffffffffffff16148015610d2b57506001600082815260200190815260200160002060060160009054906101000a900460ff165b15610ff257600160008281526020019081526020016000206040518060e001604052908160008201548152602001600182018054610d6890612117565b80601f0160208091040260200160405190810160405280929190818152602001828054610d9490612117565b8015610de15780601f10610db657610100808354040283529160200191610de1565b820191906000526020600020905b815481529060010190602001808311610dc457829003601f168201915b50505050508152602001600282018054610dfa90612117565b80601f0160208091040260200160405190810160405280929190818152602001828054610e2690612117565b8015610e735780601f10610e4857610100808354040283529160200191610e73565b820191906000526020600020905b815481529060010190602001808311610e5657829003601f168201915b50505050508152602001600382018054610e8c90612117565b80601f0160208091040260200160405190810160405280929190818152602001828054610eb890612117565b8015610f055780601f10610eda57610100808354040283529160200191610f05565b820191906000526020600020905b815481529060010190602001808311610ee857829003601f168201915b50505050508152602001600482018054610f1e90612117565b80601f0160208091040260200160405190810160405280929190818152602001828054610f4a90612117565b8015610f975780601f10610f6c57610100808354040283529160200191610f97565b820191906000526020600020905b815481529060010190602001808311610f7a57829003601f168201915b50505050508152602001600582015481526020016006820160009054906101000a900460ff161515151581525050838381518110610fd857610fd761250d565b5b60200260200101819052508180610fee90612177565b9250505b8080600101915050610c93565b50819350505050919050565b600080600360009054906101000a900473ffffffffffffffffffffffffffffffffffffffff1673ffffffffffffffffffffffffffffffffffffffff1663feaf968c6040518163ffffffff1660e01b815260040160a060405180830381865afa15801561107b573d6000803e3d6000fd5b505050506040513d601f19601f8201168201806040525081019061109f9190612ae3565b5050509150508091505090565b6001600082815260200190815260200160002060060160009054906101000a900460ff1615611110576040517f08c379a000000000000000000000000000000000000000000000000000000000815260040161110790612588565b60405180910390fd5b600061113160016000848152602001908152602001600020600501546115f3565b905080341015611176576040517f08c379a000000000000000000000000000000000000000000000000000000000815260040161116d906125f4565b60405180910390fd5b336002600084815260200190815260200160002060006101000a81548173ffffffffffffffffffffffffffffffffffffffff021916908373ffffffffffffffffffffffffffffffffffffffff160217905550600180600084815260200190815260200160002060060160006101000a81548160ff0219169083151502179055507f0176f203df400d7bd5f1b1c9ef36c16709bf3b5d9fd35f000a6bae32393f66c382336040516112279291906129cb565b60405180910390a15050565b60026020528060005260406000206000915054906101000a900473ffffffffffffffffffffffffffffffffffffffff1681565b73b3ed1424ac12b8b6a2472ae3d744a05f5a7e940a73ffffffffffffffffffffffffffffffffffffffff166108fc349081150290604051600060405180830381858888f193505050501580156112c0573d6000803e3d6000fd5b50565b60606000805467ffffffffffffffff8111156112e2576112e1611875565b5b60405190808252806020026020018201604052801561131b57816020015b611308611670565b8152602001906001900390816113005790505b50905060005b6000548110156115eb57600160008281526020019081526020016000206040518060e00160405290816000820154815260200160018201805461136390612117565b80601f016020809104026020016040519081016040528092919081815260200182805461138f90612117565b80156113dc5780601f106113b1576101008083540402835291602001916113dc565b820191906000526020600020905b8154815290600101906020018083116113bf57829003601f168201915b505050505081526020016002820180546113f590612117565b80601f016020809104026020016040519081016040528092919081815260200182805461142190612117565b801561146e5780601f106114435761010080835404028352916020019161146e565b820191906000526020600020905b81548152906001019060200180831161145157829003601f168201915b5050505050815260200160038201805461148790612117565b80601f01602080910402602001604051908101604052809291908181526020018280546114b390612117565b80156115005780601f106114d557610100808354040283529160200191611500565b820191906000526020600020905b8154815290600101906020018083116114e357829003601f168201915b5050505050815260200160048201805461151990612117565b80601f016020809104026020016040519081016040528092919081815260200182805461154590612117565b80156115925780601f1061156757610100808354040283529160200191611592565b820191906000526020600020905b81548152906001019060200180831161157557829003601f168201915b50505050508152602001600582015481526020016006820160009054906101000a900460ff1615151515815250508282815181106115d3576115d261250d565b5b60200260200101819052508080600101915050611321565b508091505090565b6000806115fe61100b565b905060008113611643576040517f08c379a000000000000000000000000000000000000000000000000000000000815260040161163a90612baa565b60405180910390fd5b600081670de0b6b3a76400008561165a9190612bca565b6116649190612c3b565b90508092505050919050565b6040518060e001604052806000815260200160608152602001606081526020016060815260200160608152602001600081526020016000151581525090565b6000604051905090565b600080fd5b600080fd5b6000819050919050565b6116d6816116c3565b81146116e157600080fd5b50565b6000813590506116f3816116cd565b92915050565b60006020828403121561170f5761170e6116b9565b5b600061171d848285016116e4565b91505092915050565b61172f816116c3565b82525050565b600081519050919050565b600082825260208201905092915050565b60005b8381101561176f578082015181840152602081019050611754565b60008484015250505050565b6000601f19601f8301169050919050565b600061179782611735565b6117a18185611740565b93506117b1818560208601611751565b6117ba8161177b565b840191505092915050565b60008115159050919050565b6117da816117c5565b82525050565b600060e0820190506117f5600083018a611726565b8181036020830152611807818961178c565b9050818103604083015261181b818861178c565b9050818103606083015261182f818761178c565b90508181036080830152611843818661178c565b905061185260a0830185611726565b61185f60c08301846117d1565b98975050505050505050565b600080fd5b600080fd5b7f4e487b7100000000000000000000000000000000000000000000000000000000600052604160045260246000fd5b6118ad8261177b565b810181811067ffffffffffffffff821117156118cc576118cb611875565b5b80604052505050565b60006118df6116af565b90506118eb82826118a4565b919050565b600067ffffffffffffffff82111561190b5761190a611875565b5b6119148261177b565b9050602081019050919050565b82818337600083830152505050565b600061194361193e846118f0565b6118d5565b90508281526020810184848401111561195f5761195e611870565b5b61196a848285611921565b509392505050565b600082601f8301126119875761198661186b565b5b8135611997848260208601611930565b91505092915050565b600080600080600060a086880312156119bc576119bb6116b9565b5b600086013567ffffffffffffffff8111156119da576119d96116be565b5b6119e688828901611972565b955050602086013567ffffffffffffffff811115611a0757611a066116be565b5b611a1388828901611972565b945050604086013567ffffffffffffffff811115611a3457611a336116be565b5b611a4088828901611972565b935050606086013567ffffffffffffffff811115611a6157611a606116be565b5b611a6d88828901611972565b9250506080611a7e888289016116e4565b9150509295509295909350565b600067ffffffffffffffff821115611aa657611aa5611875565b5b602082029050602081019050919050565b600080fd5b6000611acf611aca84611a8b565b6118d5565b90508083825260208201905060208402830185811115611af257611af1611ab7565b5b835b81811015611b1b5780611b0788826116e4565b845260208401935050602081019050611af4565b5050509392505050565b600082601f830112611b3a57611b3961186b565b5b8135611b4a848260208601611abc565b91505092915050565b600067ffffffffffffffff821115611b6e57611b6d611875565b5b602082029050602081019050919050565b600067ffffffffffffffff821115611b9a57611b99611875565b5b611ba38261177b565b9050602081019050919050565b6000611bc3611bbe84611b7f565b6118d5565b905082815260208101848484011115611bdf57611bde611870565b5b611bea848285611921565b509392505050565b600082601f830112611c0757611c0661186b565b5b8135611c17848260208601611bb0565b91505092915050565b6000611c33611c2e84611b53565b6118d5565b90508083825260208201905060208402830185811115611c5657611c55611ab7565b5b835b81811015611c9d57803567ffffffffffffffff811115611c7b57611c7a61186b565b5b808601611c888982611bf2565b85526020850194505050602081019050611c58565b5050509392505050565b600082601f830112611cbc57611cbb61186b565b5b8135611ccc848260208601611c20565b91505092915050565b600080600060608486031215611cee57611ced6116b9565b5b600084013567ffffffffffffffff811115611d0c57611d0b6116be565b5b611d1886828701611b25565b935050602084013567ffffffffffffffff811115611d3957611d386116be565b5b611d4586828701611b25565b925050604084013567ffffffffffffffff811115611d6657611d656116be565b5b611d7286828701611ca7565b9150509250925092565b600073ffffffffffffffffffffffffffffffffffffffff82169050919050565b6000611da782611d7c565b9050919050565b611db781611d9c565b8114611dc257600080fd5b50565b600081359050611dd481611dae565b92915050565b600060208284031215611df057611def6116b9565b5b6000611dfe84828501611dc5565b91505092915050565b6000611e1282611d7c565b9050919050565b611e2281611e07565b8114611e2d57600080fd5b50565b600081359050611e3f81611e19565b92915050565b600060208284031215611e5b57611e5a6116b9565b5b6000611e6984828501611e30565b91505092915050565b600081519050919050565b600082825260208201905092915050565b6000819050602082019050919050565b611ea7816116c3565b82525050565b600082825260208201905092915050565b6000611ec982611735565b611ed38185611ead565b9350611ee3818560208601611751565b611eec8161177b565b840191505092915050565b611f00816117c5565b82525050565b600060e083016000830151611f1e6000860182611e9e565b5060208301518482036020860152611f368282611ebe565b91505060408301518482036040860152611f508282611ebe565b91505060608301518482036060860152611f6a8282611ebe565b91505060808301518482036080860152611f848282611ebe565b91505060a0830151611f9960a0860182611e9e565b5060c0830151611fac60c0860182611ef7565b508091505092915050565b6000611fc38383611f06565b905092915050565b6000602082019050919050565b6000611fe382611e72565b611fed8185611e7d565b935083602082028501611fff85611e8e565b8060005b8581101561203b578484038952815161201c8582611fb7565b945061202783611fcb565b925060208a01995050600181019050612003565b50829750879550505050505092915050565b600060208201905081810360008301526120678184611fd8565b905092915050565b6000819050919050565b6120828161206f565b82525050565b600060208201905061209d6000830184612079565b92915050565b6120ac81611e07565b82525050565b60006020820190506120c760008301846120a3565b92915050565b60006020820190506120e26000830184611726565b92915050565b7f4e487b7100000000000000000000000000000000000000000000000000000000600052602260045260246000fd5b6000600282049050600182168061212f57607f821691505b602082108103612142576121416120e8565b5b50919050565b7f4e487b7100000000000000000000000000000000000000000000000000000000600052601160045260246000fd5b6000612182826116c3565b91507fffffffffffffffffffffffffffffffffffffffffffffffffffffffffffffffff82036121b4576121b3612148565b5b600182019050919050565b60008190508160005260206000209050919050565b60006020601f8301049050919050565b600082821b905092915050565b6000600883026122217fffffffffffffffffffffffffffffffffffffffffffffffffffffffffffffffff826121e4565b61222b86836121e4565b95508019841693508086168417925050509392505050565b6000819050919050565b600061226861226361225e846116c3565b612243565b6116c3565b9050919050565b6000819050919050565b6122828361224d565b61229661228e8261226f565b8484546121f1565b825550505050565b600090565b6122ab61229e565b6122b6818484612279565b505050565b5b818110156122da576122cf6000826122a3565b6001810190506122bc565b5050565b601f82111561231f576122f0816121bf565b6122f9846121d4565b81016020851015612308578190505b61231c612314856121d4565b8301826122bb565b50505b505050565b600082821c905092915050565b600061234260001984600802612324565b1980831691505092915050565b600061235b8383612331565b9150826002028217905092915050565b61237482611735565b67ffffffffffffffff81111561238d5761238c611875565b5b6123978254612117565b6123a28282856122de565b600060209050601f8311600181146123d557600084156123c3578287015190505b6123cd858261234f565b865550612435565b601f1984166123e3866121bf565b60005b8281101561240b578489015182556001820191506020850194506020810190506123e6565b868310156124285784890151612424601f891682612331565b8355505b6001600288020188555050505b505050505050565b60006060820190506124526000830186611726565b8181036020830152612464818561178c565b90506124736040830184611726565b949350505050565b7f4d69736d6174636820696e204e46542049447320616e6420707269636573206c60008201527f656e677468000000000000000000000000000000000000000000000000000000602082015250565b60006124d7602583611740565b91506124e28261247b565b604082019050919050565b60006020820190508181036000830152612506816124ca565b9050919050565b7f4e487b7100000000000000000000000000000000000000000000000000000000600052603260045260246000fd5b7f4e465420616c7265616479206d696e7465640000000000000000000000000000600082015250565b6000612572601283611740565b915061257d8261253c565b602082019050919050565b600060208201905081810360008301526125a181612565565b9050919050565b7f4e6f7420656e6f756768204554482073656e7400000000000000000000000000600082015250565b60006125de601383611740565b91506125e9826125a8565b602082019050919050565b6000602082019050818103600083015261260d816125d1565b9050919050565b600081519050919050565b600082825260208201905092915050565b6000819050602082019050919050565b61264981611e07565b82525050565b600061265b8383612640565b60208301905092915050565b6000602082019050919050565b600061267f82612614565b612689818561261f565b935061269483612630565b8060005b838110156126c55781516126ac888261264f565b97506126b783612667565b925050600181019050612698565b5085935050505092915050565b600081519050919050565b600082825260208201905092915050565b6000819050602082019050919050565b600061270a8383611e9e565b60208301905092915050565b6000602082019050919050565b600061272e826126d2565b61273881856126dd565b9350612743836126ee565b8060005b8381101561277457815161275b88826126fe565b975061276683612716565b925050600181019050612747565b5085935050505092915050565b600081519050919050565b600082825260208201905092915050565b6000819050602082019050919050565b600081519050919050565b600082825260208201905092915050565b60006127d4826127ad565b6127de81856127b8565b93506127ee818560208601611751565b6127f78161177b565b840191505092915050565b600061280e83836127c9565b905092915050565b6000602082019050919050565b600061282e82612781565b612838818561278c565b93508360208202850161284a8561279d565b8060005b8581101561288657848403895281516128678582612802565b945061287283612816565b925060208a0199505060018101905061284e565b50829750879550505050505092915050565b600081519050919050565b600082825260208201905092915050565b6000819050602082019050919050565b600067ffffffffffffffff82169050919050565b6128e1816128c4565b82525050565b60006128f383836128d8565b60208301905092915050565b6000602082019050919050565b600061291782612898565b61292181856128a3565b935061292c836128b4565b8060005b8381101561295d57815161294488826128e7565b975061294f836128ff565b925050600181019050612930565b5085935050505092915050565b600060808201905081810360008301526129848187612674565b905081810360208301526129988186612723565b905081810360408301526129ac8185612823565b905081810360608301526129c0818461290c565b905095945050505050565b60006040820190506129e06000830185611726565b6129ed60208301846120a3565b9392505050565b7f496e76616c696420616464726573730000000000000000000000000000000000600082015250565b6000612a2a600f83611740565b9150612a35826129f4565b602082019050919050565b60006020820190508181036000830152612a5981612a1d565b9050919050565b600069ffffffffffffffffffff82169050919050565b612a7f81612a60565b8114612a8a57600080fd5b50565b600081519050612a9c81612a76565b92915050565b612aab8161206f565b8114612ab657600080fd5b50565b600081519050612ac881612aa2565b92915050565b600081519050612add816116cd565b92915050565b600080600080600060a08688031215612aff57612afe6116b9565b5b6000612b0d88828901612a8d565b9550506020612b1e88828901612ab9565b9450506040612b2f88828901612ace565b9350506060612b4088828901612ace565b9250506080612b5188828901612a8d565b9150509295509295909350565b7f496e76616c696420455448207072696365000000000000000000000000000000600082015250565b6000612b94601183611740565b9150612b9f82612b5e565b602082019050919050565b60006020820190508181036000830152612bc381612b87565b9050919050565b6000612bd5826116c3565b9150612be0836116c3565b9250828202612bee816116c3565b91508282048414831517612c0557612c04612148565b5b5092915050565b7f4e487b7100000000000000000000000000000000000000000000000000000000600052601260045260246000fd5b6000612c46826116c3565b9150612c51836116c3565b925082612c6157612c60612c0c565b5b82820490509291505056fea26469706673582212203bf0c6c552b561772693ff1f317ab3b1239f0818cbc3116867003ede4c26b38b64736f6c63430008180033",
  "linkReferences": {},
  "deployedLinkReferences": {}
}